:100000000C9438000C9442000C9442000C94420072
:100010000C9442000C9442000C9442000C94420058
:100020000C9442000C9442000C9442000C94420048
:100030000C9442000C9446000C9442000C94420034
:100040000C9442000C9442000C9442000C94420028
:100050000C9442000C9442000C9442000C94420018
:100060000C9442000C9442000C9442000C94420008
:1000700011241FBECFEFD4E0DEBFCDBF0E945800D9
:100080000C9466010C940000BA9A08951F920F9286
:100090000FB60F9211248F939F9388B394E0892712
:1000A00088BB9F918F910F900FBE0F901F90189556
:1000B0000E94440080E00E947E0040E054E061E045
:1000C00070E090E080E00E94160188E50E949800B0
:1000D0002FE38DE093E0215080409040E1F700C095
:1000E000000089E50E9498002FE38DE093E0215005
:1000F00080409040E1F700C00000E7CF59989AB1E6
:1001000098619AB990B59F7B90BD90B5966890BD67
:10011000529890B59F7C90BD90B5977F90BD10BCD4
:1001200097E699B9811102C057980895579A089592
:100130005D9BFECF8CB9089580E0089581309105D4
:1001400079F08830910571F08034910569F081155E
:1001500021E0920759F08115944051F081E0089513
:1001600081E0089582E0089583E0089584E0089591
:1001700085E008950E949E0097B3880F892B87BB66
:1001800087B5836087BD87B5806C87BD87B5806282
:1001900087BD8FE082BD0895009719F0029759F04E
:1001A00008952FEF629FC001112464E670E00E9461
:1001B0003E0161BF08952FEF629FC001112464E6E4
:1001C00070E00E943E0162BDEBCF1F93CF93DF939F
:1001D000EC01162F009799F0029701F5CA010E94D1
:1001E0009E0097B3880F892B87BB87B5836087BD37
:1001F00087B5806C87BD87B5806287BD0FC0CA0197
:100200000E949E0097B3892B87BB83B7836083BF0F
:1002100083B7806C83BF83B7806283BF612FCE01B9
:100220000E94CC00DF91CF911F9108950F931F93EF
:10023000CF938C01C62F9FB59F739FBD9FB59C7FA9
:100240009FBD9EB598609EBDCA010E949E009EB54E
:10025000892B8EBDCC0FF894012B51F0C9BD18BC71
:1002600089B7806289BF7894CF911F910F910895CB
:10027000CBBD1ABC89B7806489BFF5CF97FB072E29
:1002800016F4009407D077FD09D00E94520107FCB4
:1002900005D03EF4909581959F4F08957095619596
:1002A0007F4F0895AA1BBB1B51E107C0AA1FBB1FAC
:1002B000A617B70710F0A61BB70B881F991F5A95F2
:1002C000A9F780959095BC01CD010895F894FFCFD2
:00000001FF
